{
  "contractName": "PriceProviderMock",
  "sourceName": "contracts/mocks/PriceProviderMock.sol",
  "abi": [
    {
      "inputs": [
        {
          "internalType": "uint256",
          "name": "price_",
          "type": "uint256"
        }
      ],
      "stateMutability": "nonpayable",
      "type": "constructor"
    },
    {
      "inputs": [],
      "name": "deprecatePriceProvider",
      "outputs": [],
      "stateMutability": "nonpayable",
      "type": "function"
    },
    {
      "inputs": [],
      "name": "has",
      "outputs": [
        {
          "internalType": "bool",
          "name": "",
          "type": "bool"
        }
      ],
      "stateMutability": "view",
      "type": "function"
    },
    {
      "inputs": [],
      "name": "mocPrice",
      "outputs": [
        {
          "internalType": "bytes32",
          "name": "",
          "type": "bytes32"
        }
      ],
      "stateMutability": "view",
      "type": "function"
    },
    {
      "inputs": [],
      "name": "peek",
      "outputs": [
        {
          "internalType": "bytes32",
          "name": "",
          "type": "bytes32"
        },
        {
          "internalType": "bool",
          "name": "",
          "type": "bool"
        }
      ],
      "stateMutability": "view",
      "type": "function"
    },
    {
      "inputs": [
        {
          "internalType": "uint256",
          "name": "price_",
          "type": "uint256"
        }
      ],
      "name": "poke",
      "outputs": [],
      "stateMutability": "nonpayable",
      "type": "function"
    }
  ],
  "bytecode": "0x60803461005d57601f61019b38819003918201601f19168301916001600160401b038311848410176100625780849260209460405283398101031261005d5751600055600160ff198154161760015560405161012290816100798239f35b600080fd5b634e487b7160e01b600052604160045260246000fdfe6080806040526004361015601257600080fd5b600090813560e01c9081632a3f43891460d05750806332145f901460b85780635095e3d914609c57806359e02dd71460755763b689d5ac14605257600080fd5b3460725780600319360112607257602060ff600154166040519015158152f35b80fd5b5034607257806003193601126072576040905460ff60015416825191825215156020820152f35b50346072578060031936011260725760ff196001541660015580f35b50346072576020366003190112607257600435815580f35b90503460e8578160031936011260e857602091548152f35b5080fdfea264697066735822122072d2893e184264a56256407bb10b2744402af53807dbe6d8cac8f775960d5c7864736f6c63430008140033",
  "linkReferences": {},
  "deployedLinkReferences": {},
  "devdoc": {
    "kind": "dev",
    "methods": {
      "constructor": {
        "params": {
          "price_": "MoC price for mock contract"
        }
      },
      "peek()": {
        "params": {
          "price": "assetPrice",
          "valid": "true if the price is valid"
        }
      }
    },
    "version": 1
  },
  "evm": {
    "bytecode": {
      "linkReferences": {},
      "opcodes": "PUSH1 0x80 CALLVALUE PUSH2 0x5D JUMPI PUSH1 0x1F PUSH2 0x19B CODESIZE DUP2 SWAP1 SUB SWAP2 DUP3 ADD PUSH1 0x1F NOT AND DUP4 ADD SWAP2 PUSH1 0x1 PUSH1 0x1 PUSH1 0x40 SHL SUB DUP4 GT DUP5 DUP5 LT OR PUSH2 0x62 JUMPI DUP1 DUP5 SWAP3 PUSH1 0x20 SWAP5 PUSH1 0x40 MSTORE DUP4 CODECOPY DUP2 ADD SUB SLT PUSH2 0x5D JUMPI MLOAD PUSH1 0x0 SSTORE PUSH1 0x1 PUSH1 0xFF NOT DUP2 SLOAD AND OR PUSH1 0x1 SSTORE PUSH1 0x40 MLOAD PUSH2 0x122 SWAP1 DUP2 PUSH2 0x79 DUP3 CODECOPY RETURN JUMPDEST PUSH1 0x0 DUP1 REVERT JUMPDEST PUSH4 0x4E487B71 PUSH1 0xE0 SHL PUSH1 0x0 MSTORE PUSH1 0x41 PUSH1 0x4 MSTORE PUSH1 0x24 PUSH1 0x0 REVERT INVALID PUSH1 0x80 DUP1 PUSH1 0x40 MSTORE PUSH1 0x4 CALLDATASIZE LT ISZERO PUSH1 0x12 JUMPI PUSH1 0x0 DUP1 REVERT JUMPDEST PUSH1 0x0 SWAP1 DUP2 CALLDATALOAD PUSH1 0xE0 SHR SWAP1 DUP2 PUSH4 0x2A3F4389 EQ PUSH1 0xD0 JUMPI POP DUP1 PUSH4 0x32145F90 EQ PUSH1 0xB8 JUMPI DUP1 PUSH4 0x5095E3D9 EQ PUSH1 0x9C JUMPI DUP1 PUSH4 0x59E02DD7 EQ PUSH1 0x75 JUMPI PUSH4 0xB689D5AC EQ PUSH1 0x52 JUMPI PUSH1 0x0 DUP1 REVERT JUMPDEST CALLVALUE PUSH1 0x72 JUMPI DUP1 PUSH1 0x3 NOT CALLDATASIZE ADD SLT PUSH1 0x72 JUMPI PUSH1 0x20 PUSH1 0xFF PUSH1 0x1 SLOAD AND PUSH1 0x40 MLOAD SWAP1 ISZERO ISZERO DUP2 MSTORE RETURN JUMPDEST DUP1 REVERT JUMPDEST POP CALLVALUE PUSH1 0x72 JUMPI DUP1 PUSH1 0x3 NOT CALLDATASIZE ADD SLT PUSH1 0x72 JUMPI PUSH1 0x40 SWAP1 SLOAD PUSH1 0xFF PUSH1 0x1 SLOAD AND DUP3 MLOAD SWAP2 DUP3 MSTORE ISZERO ISZERO PUSH1 0x20 DUP3 ADD MSTORE RETURN JUMPDEST POP CALLVALUE PUSH1 0x72 JUMPI DUP1 PUSH1 0x3 NOT CALLDATASIZE ADD SLT PUSH1 0x72 JUMPI PUSH1 0xFF NOT PUSH1 0x1 SLOAD AND PUSH1 0x1 SSTORE DUP1 RETURN JUMPDEST POP CALLVALUE PUSH1 0x72 JUMPI PUSH1 0x20 CALLDATASIZE PUSH1 0x3 NOT ADD SLT PUSH1 0x72 JUMPI PUSH1 0x4 CALLDATALOAD DUP2 SSTORE DUP1 RETURN JUMPDEST SWAP1 POP CALLVALUE PUSH1 0xE8 JUMPI DUP2 PUSH1 0x3 NOT CALLDATASIZE ADD SLT PUSH1 0xE8 JUMPI PUSH1 0x20 SWAP2 SLOAD DUP2 MSTORE RETURN JUMPDEST POP DUP1 REVERT INVALID LOG2 PUSH5 0x6970667358 0x22 SLT KECCAK256 PUSH19 0xD2893E184264A56256407BB10B2744402AF538 SMOD 0xDB 0xE6 0xD8 0xCA 0xC8 0xF7 PUSH22 0x960D5C7864736F6C6343000814003300000000000000 "
    },
    "gasEstimates": {
      "creation": {
        "codeDepositCost": "58000",
        "executionCost": "infinite",
        "totalCost": "infinite"
      },
      "external": {
        "deprecatePriceProvider()": "24401",
        "has()": "2361",
        "mocPrice()": "2258",
        "peek()": "4462",
        "poke(uint256)": "22273"
      }
    },
    "methodIdentifiers": {
      "deprecatePriceProvider()": "5095e3d9",
      "has()": "b689d5ac",
      "mocPrice()": "2a3f4389",
      "peek()": "59e02dd7",
      "poke(uint256)": "32145f90"
    }
  },
  "storageLayout": {
    "storage": [
      {
        "astId": 23425,
        "contract": "contracts/mocks/PriceProviderMock.sol:PriceProviderMock",
        "label": "mocPrice",
        "offset": 0,
        "slot": "0",
        "type": "t_bytes32"
      },
      {
        "astId": 23427,
        "contract": "contracts/mocks/PriceProviderMock.sol:PriceProviderMock",
        "label": "has",
        "offset": 0,
        "slot": "1",
        "type": "t_bool"
      }
    ],
    "types": {
      "t_bool": {
        "encoding": "inplace",
        "label": "bool",
        "numberOfBytes": "1"
      },
      "t_bytes32": {
        "encoding": "inplace",
        "label": "bytes32",
        "numberOfBytes": "32"
      }
    }
  },
  "userdoc": {
    "kind": "user",
    "methods": {
      "constructor": {
        "notice": "constructor"
      },
      "peek()": {
        "notice": "returns the given `price` for the asset if `valid`"
      }
    },
    "version": 1
  }
}