{
  "address": "0xC0f4C1FcF2F81448f73a6D4992C53A9Beb58ccd9",
  "abi": [
    {
      "inputs": [
        {
          "internalType": "contract IERC20",
          "name": "token_",
          "type": "address"
        },
        {
          "internalType": "bytes32",
          "name": "root_",
          "type": "bytes32"
        }
      ],
      "stateMutability": "nonpayable",
      "type": "constructor"
    },
    {
      "inputs": [
        {
          "internalType": "address",
          "name": "target",
          "type": "address"
        }
      ],
      "name": "AddressEmptyCode",
      "type": "error"
    },
    {
      "inputs": [
        {
          "internalType": "address",
          "name": "account",
          "type": "address"
        }
      ],
      "name": "AddressInsufficientBalance",
      "type": "error"
    },
    {
      "inputs": [],
      "name": "FailedInnerCall",
      "type": "error"
    },
    {
      "inputs": [],
      "name": "InvalidProof",
      "type": "error"
    },
    {
      "inputs": [
        {
          "internalType": "address",
          "name": "token",
          "type": "address"
        }
      ],
      "name": "SafeERC20FailedOperation",
      "type": "error"
    },
    {
      "inputs": [],
      "name": "UsedLeaf",
      "type": "error"
    },
    {
      "anonymous": false,
      "inputs": [
        {
          "indexed": true,
          "internalType": "address",
          "name": "origin_",
          "type": "address"
        },
        {
          "indexed": false,
          "internalType": "uint256",
          "name": "amount_",
          "type": "uint256"
        },
        {
          "indexed": false,
          "internalType": "address",
          "name": "executor_",
          "type": "address"
        },
        {
          "indexed": false,
          "internalType": "address",
          "name": "recipient_",
          "type": "address"
        }
      ],
      "name": "TokensClaimed",
      "type": "event"
    },
    {
      "inputs": [
        {
          "internalType": "uint256",
          "name": "amount_",
          "type": "uint256"
        },
        {
          "internalType": "bytes32[]",
          "name": "proof_",
          "type": "bytes32[]"
        }
      ],
      "name": "claim",
      "outputs": [],
      "stateMutability": "nonpayable",
      "type": "function"
    },
    {
      "inputs": [
        {
          "internalType": "bytes32",
          "name": "",
          "type": "bytes32"
        }
      ],
      "name": "claimedLeaf",
      "outputs": [
        {
          "internalType": "bool",
          "name": "",
          "type": "bool"
        }
      ],
      "stateMutability": "view",
      "type": "function"
    },
    {
      "inputs": [],
      "name": "root",
      "outputs": [
        {
          "internalType": "bytes32",
          "name": "",
          "type": "bytes32"
        }
      ],
      "stateMutability": "view",
      "type": "function"
    },
    {
      "inputs": [],
      "name": "token",
      "outputs": [
        {
          "internalType": "contract IERC20",
          "name": "",
          "type": "address"
        }
      ],
      "stateMutability": "view",
      "type": "function"
    },
    {
      "inputs": [],
      "name": "totalClaimed",
      "outputs": [
        {
          "internalType": "uint256",
          "name": "",
          "type": "uint256"
        }
      ],
      "stateMutability": "view",
      "type": "function"
    }
  ],
  "transactionHash": "0xeaec31f616be1293ea8847218c99987438890511fcc7db5a3459d9096f22c7d6",
  "args": [
    "0x2f778249852746b12c80f5246293539126061976",
    "0xe8d063961b7d4bf4b67d3049fb28b83ccd2fc8b66237f6fa8bf1eb4a9b97dc13"
  ],
  "numDeployments": 1,
  "solcInputHash": "387b638313c72dd35437e94b9191fc7d",
  "bytecode": "0x608060405234801561001057600080fd5b506040516106b53803806106b583398101604081905261002f91610056565b6002819055600380546001600160a01b0319166001600160a01b0384161790555050610090565b6000806040838503121561006957600080fd5b82516001600160a01b038116811461008057600080fd5b6020939093015192949293505050565b6106168061009f6000396000f3fe608060405234801561001057600080fd5b50600436106100575760003560e01c80632f52ebb71461005c57806380bdc42114610071578063d54ad2a1146100a9578063ebf0c717146100c0578063fc0c546a146100c9575b600080fd5b61006f61006a3660046104ba565b6100f4565b005b61009461007f366004610539565b60006020819052908152604090205460ff1681565b60405190151581526020015b60405180910390f35b6100b260015481565b6040519081526020016100a0565b6100b260025481565b6003546100dc906001600160a01b031681565b6040516001600160a01b0390911681526020016100a0565b6101013333858585610106565b505050565b604080516001600160a01b038716602082015290810184905260009060600160408051601f19818403018152828252805160209182012090830152016040516020818303038152906040528051906020012090506101688383600254846101eb565b610185576040516309bde33960e01b815260040160405180910390fd5b60008181526020819052604090205460ff16156101b55760405163c0ab2c9f60e01b815260040160405180910390fd5b6000818152602081905260409020805460ff191660019081179091558054850190556101e386853388610203565b505050505050565b6000826101f986868561027f565b1495945050505050565b836001600160a01b03167f630e564381e069434e7fe1f52d855742394716f7a69201533a428164373fa84f84848460405161025a939291909283526001600160a01b03918216602084015216604082015260600190565b60405180910390a2600354610279906001600160a01b031682856102cd565b50505050565b600081815b848110156102c2576102ae828787848181106102a2576102a2610552565b9050602002013561031f565b9150806102ba81610568565b915050610284565b5090505b9392505050565b604080516001600160a01b038416602482015260448082018490528251808303909101815260649091019091526020810180516001600160e01b031663a9059cbb60e01b17905261010190849061034b565b600081831061033b5760008281526020849052604090206102c6565b5060009182526020526040902090565b60006103606001600160a01b038416836103b3565b90508051600014158015610385575080806020019051810190610383919061058f565b155b1561010157604051635274afe760e01b81526001600160a01b03841660048201526024015b60405180910390fd5b60606102c68383600084600080856001600160a01b031684866040516103d991906105b1565b60006040518083038185875af1925050503d8060008114610416576040519150601f19603f3d011682016040523d82523d6000602084013e61041b565b606091505b509150915061042b868383610435565b9695505050505050565b60608261044a5761044582610491565b6102c6565b815115801561046157506001600160a01b0384163b155b1561048a57604051639996b31560e01b81526001600160a01b03851660048201526024016103aa565b50806102c6565b8051156104a15780518082602001fd5b604051630a12f52160e11b815260040160405180910390fd5b6000806000604084860312156104cf57600080fd5b83359250602084013567ffffffffffffffff808211156104ee57600080fd5b818601915086601f83011261050257600080fd5b81358181111561051157600080fd5b8760208260051b850101111561052657600080fd5b6020830194508093505050509250925092565b60006020828403121561054b57600080fd5b5035919050565b634e487b7160e01b600052603260045260246000fd5b60006001820161058857634e487b7160e01b600052601160045260246000fd5b5060010190565b6000602082840312156105a157600080fd5b815180151581146102c657600080fd5b6000825160005b818110156105d257602081860181015185830152016105b8565b50600092019182525091905056fea264697066735822122097ef844d522db3026efb6689715adfcc80761cce8948b506093900a8956af16e64736f6c63430008140033",
  "devdoc": {
    "details": "It's compatible with the tool \"openzeppelin/merkle-tree\" that generates the merkle tree given      the data (root and proofs)",
    "errors": {
      "AddressEmptyCode(address)": [
        {
          "details": "There's no code at `target` (it is not a contract)."
        }
      ],
      "AddressInsufficientBalance(address)": [
        {
          "details": "The ETH balance of the account is not enough to perform the operation."
        }
      ],
      "FailedInnerCall()": [
        {
          "details": "A call to an address target failed. The target may have reverted."
        }
      ],
      "SafeERC20FailedOperation(address)": [
        {
          "details": "An operation with an ERC20 token failed."
        }
      ]
    },
    "kind": "dev",
    "methods": {
      "claim(uint256,bytes32[])": {
        "details": "The leaf hashing process is compatible with the tool \"openzeppelin/merkle-tree\" as it is,          ideally it should not be changed",
        "params": {
          "amount_": "amount of tokens to be claim, needs to match MT leaf",
          "proof_": "bytes32's array to prove that the claim belongs to the merkle tree           Use \"openzeppelin/merkle-tree\" to generate the tree and its proofs"
        }
      },
      "constructor": {
        "params": {
          "token_": "the ERC20 like token to be airdrop"
        }
      }
    },
    "title": "AirdropGovernance",
    "version": 1
  },
  "userdoc": {
    "kind": "user",
    "methods": {
      "claim(uint256,bytes32[])": {
        "notice": "claims the sender tokens"
      },
      "constructor": {
        "notice": "constructor"
      }
    },
    "notice": "This contract allows you to deploy a contract which, through a Merkle Tree, allows users to claim their preassigned tokens balances.",
    "version": 1
  },
  "storageLayout": {
    "storage": [
      {
        "astId": 5495,
        "contract": "contracts/AirdropGovernance.sol:AirdropGovernance",
        "label": "claimedLeaf",
        "offset": 0,
        "slot": "0",
        "type": "t_mapping(t_bytes32,t_bool)"
      },
      {
        "astId": 5497,
        "contract": "contracts/AirdropGovernance.sol:AirdropGovernance",
        "label": "totalClaimed",
        "offset": 0,
        "slot": "1",
        "type": "t_uint256"
      },
      {
        "astId": 5499,
        "contract": "contracts/AirdropGovernance.sol:AirdropGovernance",
        "label": "root",
        "offset": 0,
        "slot": "2",
        "type": "t_bytes32"
      },
      {
        "astId": 5502,
        "contract": "contracts/AirdropGovernance.sol:AirdropGovernance",
        "label": "token",
        "offset": 0,
        "slot": "3",
        "type": "t_contract(IERC20)2320"
      },
      {
        "astId": 5627,
        "contract": "contracts/AirdropGovernance.sol:AirdropGovernance",
        "label": "__gap",
        "offset": 0,
        "slot": "4",
        "type": "t_array(t_uint256)50_storage"
      }
    ],
    "types": {
      "t_array(t_uint256)50_storage": {
        "base": "t_uint256",
        "encoding": "inplace",
        "label": "uint256[50]",
        "numberOfBytes": "1600"
      },
      "t_bool": {
        "encoding": "inplace",
        "label": "bool",
        "numberOfBytes": "1"
      },
      "t_bytes32": {
        "encoding": "inplace",
        "label": "bytes32",
        "numberOfBytes": "32"
      },
      "t_contract(IERC20)2320": {
        "encoding": "inplace",
        "label": "contract IERC20",
        "numberOfBytes": "20"
      },
      "t_mapping(t_bytes32,t_bool)": {
        "encoding": "mapping",
        "key": "t_bytes32",
        "label": "mapping(bytes32 => bool)",
        "numberOfBytes": "32",
        "value": "t_bool"
      },
      "t_uint256": {
        "encoding": "inplace",
        "label": "uint256",
        "numberOfBytes": "32"
      }
    }
  }
}